:020000040000FA
:10000000020761C2AFF5088115FFFFC2AFF5088195
:1000100027FFFFC2AFF5088139FFFFC2AFF50881A6
:100020004BFFFFC2AFF508815DFFFFC2AFF508814E
:100030006FFFFFC2AFF5088181FFFFC2AFF50881F6
:1000400093FFFFC2AFF50881A5FFFFC2AFF508819E
:10005000B7FFFFC2AFF50881C9FFFFC2AFF5088146
:10006000DBFFFFC2AFF50881EDFFFFC2AFF50881EE
:10007000FFFFFFC2AFF508A111FFFFC2AFF508A156
:1000800023FFFFC2AFF508A135FFFFC2AFF508A1FE
:1000900047FFFFFF758701002274FC120727750ACE
:1000A00004750B00780A12075074021207967A0042
:1000B0007B00790812055D740212070C850E82859B
:1000C0000F83E0F47003A3E0F470030201FF850ED8
:1000D00082850F83E0F8A3E0F9E84970030201FF8D
:1000E000740212078CE0687003A3E0697010750950
:1000F00001024030C2AF75C9AB75C95B80FE53BE0B
:10010000FBE59DA2E650FAE5C654804449F5C6E5F4
:100110009E547F644970F853C67FE59EA2E740FA7B
:1001200053C680E59E547F70FA43BE04906270749B
:1001300008F0750A00F50B780A1207507C807D01E3
:100140007A007B00790812055D740212070C900199
:1001500086E0F50AA3E0F50B7409780A120770E54A
:100160000A2408FF53B4F375BC0075BC007CFC7D09
:10017000077A047B0079081203857E09EFC3940A8D
:10018000401C800774086E70027E467C007D087AF1
:10019000007B00EEF91203850EEEC39F40E6A8BD7A
:1001A000850E82850F83E8F9E5BCF8E0687003A34B
:1001B000E069704B850E82850F83E0F8A3E0F97447
:1001C0000212078CE8F0A3E9F0850E82850F837494
:1001D000FFF0A3F07409F5D57480F5D4750A0178A1
:1001E0000A12075074021207967A007B101205E378
:1001F000740212070CC2AF75C9AB75C95B80FE757E
:100200000A04780A12075074021207967A007B00DB
:10021000790112055D740212070C850E82850F8329
:10022000E0F47003A3E0F47003020375850E828589
:100230000F83E0F8A3E0F9E8497003020375740244
:1002400012078CE0F8A3E0F9850E82850F83E06841
:100250007003A3E0697010750900020830C2AF7521
:10026000C9AB75C95B80FE74FF68700374FF696079
:100270000302037553BEFBE59DA2E650FAE5C654A2
:10028000804449F5C6E59E547F644970F853C67FA3
:10029000E59EA2E740FA53C680E59E547F70FA437C
:1002A000BE049062707408F0750A00F50B780A12AB
:1002B00007507C807D017A007B00790112055D7416
:1002C0000212070C900186E0F50AA3E0F50B740911
:1002D000780A120770E50A243FFF53B4F375BC0097
:1002E00075BC007CFC7D077A047B007901120385D4
:1002F0007E02EFC39403401C800774086E70027E78
:10030000467C007D087A007B00EEF91203850EEE34
:10031000C39F40E6A8BD850E82850F83E8F9E5BC42
:10032000F8E0687003A3E069704B850E82850F8347
:10033000E0F8A3E0F9740212078CE8F0A3E9F08575
:100340000E82850F8374FFF0A3F07409F5D57480D5
:10035000F5D4750A01780A12075074021207967ACA
:10036000007B021205E3740212070CC2AF75C9AB21
:1003700075C95B80FE43BE03120094C2AF75C9AB62
:1003800075C95B80FE74F712064BE9FEAFC7740FA8
:100390005EF50A750B00740B780A12073DEA24001B
:1003A000F8EB350BF9E82400E93480F9A2AFE43327
:1003B000F50AC2AFEEC4540FFAE5C754F84AF5C7C0
:1003C000E9900980F0E8A3F0A37470F0A374BDF085
:1003D000EC900985F0EDFC900984E054E04CF0903D
:1003E00009867420F0A37442F07409F5D57480F581
:1003F000D475D60100000000000000000000007568
:10040000D701E5D7A2E040FA8FC7E50AA2E092AF94
:100410007F020206B1E5096007E508D2AF0240336A
:10042000E508D2AF020833E5096007E508D2AF025C
:10043000403BE508D2AF02083BE5096007E508D27A
:10044000AF024043E508D2AF020843E5096007E583
:1004500008D2AF02404BE508D2AF02084BE5096075
:1004600007E508D2AF024053E508D2AF020853E5D2
:10047000096007E508D2AF02405BE508D2AF020889
:100480005BE5096007E508D2AF024063E508D2AF3B
:10049000020863E5096007E508D2AF02406BE50892
:1004A000D2AF02086BE5096007E508D2AF024073DE
:1004B000E508D2AF020873E5096007E508D2AF028C
:1004C000407BE508D2AF02087BE5096007E508D26A
:1004D000AF024083E508D2AF020883E5096007E573
:1004E00008D2AF02408BE508D2AF02088BE5096065
:1004F00007E508D2AF024093E508D2AF020893E5C2
:10050000096007E508D2AF02409BE508D2AF0208B8
:100510009BE5096007E508D2AF0240A3E508D2AF2A
:100520000208A3E5096007E508D2AF0240ABE50881
:10053000D2AF0208ABE5096007E508D2AF0240B3CD
:10054000E508D2AF0208B3E5096007E508D2AF02BB
:1005500040BBE508D2AF0208BB0002055974F51292
:10056000064B890A740F550AF50C750D00740B784B
:100570000C12073DEA2400F8EB3480F9E82400E986
:10058000350DF985C70CA2AFE433F50BC2AFE50A10
:10059000C4540FFAE5C754F84AF5C7740B12078C18
:1005A000E0FEA3E0FFEE4F602CEEFAEFFB888289BD
:1005B00083E08C828D83F088828983A3A882A983BB
:1005C0008C828D83A3AC82AD83EA24FF1AEB34FFC7
:1005D000FBEA4B70D8850CC7E50BA2E092AF7F0415
:1005E0000206B174F712064BECFEED900980F0EEB6
:1005F000A3F0A37462F0A37473F0A3E0541FF0742B
:100600000912078CE0F50AA3E0F50BE50A33335431
:10061000FC900985F07406780A120770E50A9009C3
:1006200084F09009867412F0A37442F075D11E759F
:10063000D601EA906271F0EBA3F0906270E0D2E133
:10064000F0E0A2E740FB7F020206B1250EC582C0A2
:10065000E0E50F34FFC583C0E0E50EC3958224F9C1
:1006600010AF0885830F85820E800885830F8582F1
:100670000ED2AFCEF0A3E520F0A3780AE608F0A3EF
:10068000DEFAEFF0A3E58124FBF8E608F0A3E60824
:10069000F0A30808E608F0A3E608F0A31581158189
:1006A000D0E0FED0E0F815811581E8C0E0EEC0E0B2
:1006B00022850F83850E82E0A3FEE0A3F520780A51
:1006C000E0A3F608DFFAE0A3FFE0A3C0E0E0A3C0E8
:1006D000E0E0A3C0E0E0A3C0E010AF0885820E8593
:1006E000830F800885820E85830FD2AFD083D0829E
:1006F00022250EF58210AF08F50E400C150F80086C
:10070000F50E4002150FD2AF850F832200C0D02511
:100710000E10AF08F50E500C050F8008F50E5002B4
:10072000050FD2AFD0D022250E10AF08F50E400C29
:10073000150F8008F50E4002150FD2AF227004226B
:10074000600D18C6C333C608C633C6D5E0F41822F8
:1007500074028000C0E0F4041206F1D0E012077FBA
:100760002275D00075813F750E80750F0102079EBE
:10077000600C08C6C313C618C613C6D5E0F422CA57
:10078000C0E0E6F0A308DAFAD0E0FA22250EF582FE
:10079000E4350FF58322250EFCE4350FFD2212000F
:1007A000991207A400000080FBFFFFFFFFFFFFFF7F
:1007B000FFFFFFFFFFFFFFFFFFFFFFFFFFFFFFFF49
:1007C000FFFFFFFFFFFFFFFFFFFFFFFFFFFFFFFF39
:1007D000FFFFFFFFFFFFFFFFFFFFFFFFFFFFFFFF29
:1007E000FFFFFFFFFFFFFFFFFFFFFFFFFFFFFFFF19
:1007F000FFFFFFFFFFFFFFFFFFFFFFFFFFFFFFFF09
:04000005000007618F
:00000001FF
